:100000000C9462000C948A000C948A000C948A0070
:100010000C948A000C948A000C948A000C948A0038
:100020000C948A000C948A000C948A000C948A0028
:100030000C948A000C948A000C948A000C948A0018
:100040000C9411040C948A000C948A000C948A007D
:100050000C948A000C948A000C948A000C948A00F8
:100060000C945B040C948A0000000000240027001C
:100070002A0000000000250028002B0000000000DE
:1000800023002600290004040404040404040202DA
:100090000202020203030303030301020408102007
:1000A0004080010204081020010204081020000012
:1000B0000008000201000003040700000000000027
:1000C00000007A0511241FBECFEFD8E0DEBFCDBF00
:1000D00011E0A0E0B1E0E8EEF2E102C005900D927F
:1000E000A436B107D9F722E0A4E6B1E001C01D9221
:1000F000AD3AB207E1F710E0C2E6D0E004C02197C4
:10010000FE010E946C09C136D107C9F70E94F305B0
:100110000C9472090C94000096E0899FD001112480
:10012000A25CBD4F90967C936E935F9791E0919601
:100130009C939197E091AB02F091AC029091AA024E
:10014000992339F0309751F0811108C080915A02FB
:100150000994309719F05C968C91FACF0895CF925C
:10016000DF92EF92FF920F931F9396E0899FF00129
:100170001124E25CFD4F11A2278D30A12130310501
:1001800051F178F02230310509F451C023303105A6
:1001900009F452C01F910F91FF90EF90DF90CF9024
:1001A00008956623B9F361E070E00E948C002FB7D8
:1001B000F8948091210290912202A0912302B091A3
:1001C00024022FBF8093960290939702A0939802E7
:1001D000B0939902DFCF9FB7F894C0902102D090DE
:1001E0002202E0902302F09024029FBF0091960229
:1001F000109197022091980230919902C01AD10A69
:10020000E20AF30A0091A8021091A90230E020E06E
:100210000C151D052E053F0550F462E070E01F919E
:100220000F91FF90EF90DF90CF900C948C006111B4
:10023000B1CF63E070E0F3CF70E060E0F0CF0895FD
:100240000895AF92BF92CF92DF92EF92FF920F93F9
:100250001F93CF93DF936C017B018B01040F151F5C
:10026000EB015E01AE18BF08C017D10759F06991C4
:10027000D601ED91FC910190F081E02DC601099528
:10028000892B79F7C501DF91CF911F910F91FF90D5
:10029000EF90DF90CF90BF90AF900895833081F0C2
:1002A00028F4813099F08230A9F008958730A9F0C0
:1002B0008830C9F08430B1F4809180008F7D03C014
:1002C000809180008F7780938000089584B58F7728
:1002D00084BD089584B58F7DFBCF8091B0008F776A
:1002E0008093B00008958091B0008F7DF9CFCF93B7
:1002F000DF93282F30E0F901E255FF4F8491F90197
:10030000E656FF4FD491F901EA57FF4FC491CC2331
:10031000A1F081110E944E01EC2FF0E0EE0FFF1FC3
:10032000E458FF4FA591B491EC91ED2381E090E06A
:1003300009F480E0DF91CF91089580E090E0FACF5A
:10034000862F0C9477011F93CF93DF93282F30E0F3
:10035000F901E255FF4F8491F901E656FF4FD49120
:10036000F901EA57FF4FC491CC23A9F0162F811150
:100370000E944E01EC2FF0E0EE0FFF1FEE58FF4FF2
:10038000A591B4918FB7F894EC91111108C0D09554
:10039000DE23DC938FBFDF91CF911F910895DE2B79
:1003A000F8CF862F642F0C94A301CF93DF9390E0B6
:1003B000FC01E656FF4F24918A579F4FFC01849120
:1003C0008823C9F090E0880F991FFC01E859FF4F7E
:1003D000A591B491FC01EE58FF4FC591D4916111E4
:1003E0000DC09FB7F8948C91209582238C938881BF
:1003F000282328839FBFDF91CF910895623051F465
:100400009FB7F8943C91822F809583238C93E88149
:100410002E2BEFCF8FB7F894EC912E2B2C938FBF10
:10042000EACF862F642F0C94D5013FB7F8948091C2
:100430000E0290910F02A0911002B091110226B508
:10044000A89B05C02F3F19F00196A11DB11D3FBF0C
:10045000BA2FA92F982F8827BC01CD01620F711DDB
:10046000811D911D42E0660F771F881F991F4A95D5
:10047000D1F708958F929F92AF92BF92CF92DF9261
:10048000EF92FF924B015C010E9415026B017C010F
:100490000E9415026C197D098E099F09683E734000
:1004A00081059105A8F321E0821A9108A108B108FD
:1004B00088EEC80E83E0D81EE11CF11C8114910463
:1004C000A104B10429F7FF90EF90DF90CF90BF9087
:1004D000AF909F908F900895089585ED8093BC0014
:1004E0008091BC0084FDFCCF1092180208952091E9
:1004F000A401260F3327331F21323105ECF420915C
:100500001802FC0190E080E0243069F082E0089558
:10051000A091A4012191AC014C575E4FA40FB52FBF
:10052000B11D2C930196861798F38091A401680F52
:100530006093A40180E0089581E008950895E0911A
:100540001C0280911B02E81730F4F0E0EC59FE4FDA
:10055000808190E008958FEF9FEF089590911C02A5
:1005600080911B022FEF3FEF981748F4E92FF0E03E
:10057000EC59FE4F208130E09F5F90931C02C9012F
:10058000089580911B0290911C02891B990B08957C
:10059000CF92DF92EF92FF920F931F93CF93DF934F
:1005A0007C01CB018A012091EB01222389F0EB0130
:1005B0006B01C40ED51ECC15DD0569F06991D7011C
:1005C000ED91FC910190F081E02DC7010995F3CFE9
:1005D000642F0E947702C801DF91CF911F910F9184
:1005E000FF90EF90DF90CF900895CF93DF931F920D
:1005F000CDB7DEB769832091EB012223F9F020917A
:100600001902203258F021E030E0FC0133832283CC
:1006100090E080E00F90DF91CF91089580911A02D1
:10062000E82FF0E0E451FE4F998190838F5F809333
:100630001A028093190281E090E0ECCF61E0CE01D4
:1006400001960E947702F7CFCF93FC01C48121E08D
:100650002093EB01C0930C0210921A02109219021F
:100660008485682B85E292E00E94F5029091190240
:10067000913208F03FC0809118028111FCCF82E0D6
:100680008093180281E0809317028FEF8093EA0134
:100690001092E9019093E801ACEEB1E0E8ECF1E0F2
:1006A00080E098132FC01092C7018091C701CC0F32
:1006B000C82BC093C70180911602813039F5109282
:1006C00016028091C7018093BB008091BC0083FD1E
:1006D000F8CF85EC8093BC00809118028230E1F362
:1006E0008091EA018F3F31F08091EA01803211F070
:1006F0008091EA0110921A02109219021092EB01F5
:10070000CF9108952D9121938F5FCBCF85EEE2CFCE
:1007100090E080E00895FC0101900020E9F7319716
:10072000AF01481B590BBC0181E392E00C942101FD
:100730000F931F93CF938C01C62F0E9424036C2F1D
:100740006460C8010E9424036C2F6B7FC8010E9463
:10075000240383EC90E00197F1F7CF911F910F9163
:1007600008950F931F93CF93DF938C01D62FC42F3F
:10077000607F642B0E94980380E1D89FB001112410
:100780006C2BC801DF91CF911F910F910C949803AE
:10079000CF93DF93CDB7DEB728970FB6F894DEBFBF
:1007A0000FBECDBF98E0E3E1F1E0DE0111960190CC
:1007B0000D929A95E1F790913902981708F48FEF0E
:1007C00090E0880F991F21E030E02C0F3D1F820F31
:1007D000931FFC016081606840E081E392E028960D
:1007E0000FB6F894DEBF0FBECDBFDF91CF910C9452
:1007F000B10340E061E081E392E00E94B1038BE34A
:100800009FE10197F1F780913A02882319F080E087
:100810000C94C803089541E00E94B10381E090E088
:1008200008951F920F920FB60F9211242F933F93AA
:100830008F939F93AF93BF93809121029091220257
:10084000A0912302B091240230910D0223E0230FE6
:100850002D3758F50196A11DB11D20930D028093EF
:10086000210290932202A0932302B093240280914C
:100870000E0290910F02A0911002B0911102019608
:10088000A11DB11D80930E0290930F02A093100240
:10089000B0931102BF91AF919F918F913F912F9192
:1008A0000F900FBE0F901F90189526E8230F029609
:1008B000A11DB11DD2CF1F920F920FB60F9211241E
:1008C0002F933F934F935F936F937F938F939F9358
:1008D000AF93BF93EF93FF938091B900887F8036E9
:1008E00009F44AC0F0F5883209F4A7C018F5803140
:1008F00009F49BC0B8F4882309F4F9C0883009F4DE
:1009000094C0FF91EF91BF91AF919F918F917F9193
:100910006F915F914F913F912F910F900FBE0F906C
:100920001F901895883109F488C0803251F7809360
:10093000EA0114C0803409F49DC040F48033B9F357
:100940008833F9F68093EA0185ECB0C0803509F46C
:1009500085C0883509F496C0883499F60E946D02E6
:10096000D0CF883909F48CC038F5883729F050F495
:10097000883611F0803729F683E0809318021092B0
:10098000C60157C0883809F47BC0803919F0803817
:1009900009F0B7CF8091C601803208F071C0E091B4
:1009A000C60181E08E0F8093C6018091BB00F0E00C
:1009B000EA55FE4F80833DC0803B39F0E0F4803A39
:1009C00009F479C0883A09F09CCF84E0809318023A
:1009D0001092A5011092A401E0911402F091150269
:1009E00009958091A40181110FC081E08093A40139
:1009F0001092840109C0803C09F4A6CF883C09F418
:100A0000A3CF883B09F07DCFE091A50181E08E0F57
:100A10008093A501F0E0EC57FE4F80818093BB00EE
:100A20009091A5018091A40129C08091C701809374
:100A3000BB0085EC8093BC0064CF9091E90180916C
:100A4000E801981758F5E091E90181E08E0F809355
:100A5000E901F0E0E853FE4F8081E9CFE091E90140
:100A600081E08E0F8093E9018091BB00F0E0E853B4
:100A7000FE4F80839091E9018091E8019817C8F2B8
:100A800085E8D8CFE091E90181E08E0F8093E901FC
:100A90008091BB00F0E0E853FE4F80838091170205
:100AA00081115CCF81E08093160284EA8093BC00C0
:100AB0001092180226CF85EC8093BC001092180289
:100AC0008091C601803230F4E091C601F0E0EA5531
:100AD000FE4F10826091C60170E0E0911202F09129
:100AE000130286EA91E009951092C6010ACF10928E
:100AF000EA0134CF109228021092270288EE93E088
:100B0000A0E0B0E08093290290932A02A0932B02E8
:100B1000B0932C028FE191E09093260280932502FE
:100B20001092400210924402109243021092450229
:100B30008DE391E090933F0280933E02EAE5F2E07C
:100B40001082148213821582369682E0E639F80705
:100B5000B9F783E091E09093A1028093A00280E036
:100B600091E09093A3028093A20284E08093A40278
:100B700083E08093A50287E091E090939F028093A9
:100B80009E028AE090E09093A7028093A60284EFF1
:100B900091E09093A9028093A8021092AC02109267
:100BA000AB0210929A0210929B0210929C02109239
:100BB0009D021092AA02109234021092330281E335
:100BC00091E0909332028093310210923A0280E2D7
:100BD0008093350280E180933B0282E080933C0267
:100BE00010923D020895CF93DF93CDB7DEB7A19762
:100BF0000FB6F894DEBF0FBECDBF789484B5826087
:100C000084BD84B5816084BD85B5826085BD85B5B0
:100C1000816085BD80916E00816080936E0010922E
:100C200081008091810082608093810080918100A9
:100C3000816080938100809180008160809380003A
:100C40008091B10084608093B1008091B000816098
:100C50008093B00080917A00846080937A008091C4
:100C60007A00826080937A0080917A00816080931C
:100C70007A0080917A00806880937A001092C10097
:100C800010921C0210921B0210921A02109219026A
:100C90001092180281E0809317021092160261E010
:100CA00082E10E94A30161E083E10E94A30180919F
:100CB000B9008E7F8093B9008091B9008D7F8093B9
:100CC000B90088E48093B80085E48093BC008FE18C
:100CD00091E0909315028093140280E291E090934A
:100CE0001302809312021092360280913C028230ED
:100CF00018F098E0909336028093390262E370E036
:100D000080E090E00E943A0260913D0281E392E02F
:100D10000E94240368EE73E080E090E00E943A02B3
:100D200060E381E392E00E9498030BE416E4C801BB
:100D30000197F1F760E381E392E00E949803C80114
:100D40000197F1F760E381E392E00E94980383E565
:100D500092E00197F1F760E281E392E00E9498034C
:100D600060913602606240E081E392E00E94B1034C
:100D700084E08093370240E06CE081E392E00E94DF
:100D8000B1030E94F90382E08093380240E066E0FC
:100D900081E392E00E94B10340E062E081E392E0EF
:100DA0000E94B1038BE39FE10197F1F788E0809304
:100DB0003D0260E081E392E00E94240380E00E9413
:100DC000C80383E491E00E948B0381E00E94C80382
:100DD00085E591E00E948B0322242A94322C4AE07C
:100DE000442E512C612C712C51E05093AA028FB7E4
:100DF000F894409121025091220260912302709157
:100E000024028FBF80919A0290919B02A0919C0234
:100E1000B0919D02481B590B6A0B7B0B8091A60277
:100E20009091A702B0E0A0E084179507A607B70746
:100E300008F03BC110E08091A402181760F4E09123
:100E4000A002F091A102E10FF11D62E080810E94F9
:100E5000D5011F5FF0CF912C8091A502981608F064
:100E600063C0E92CF12CE091A202F091A302EE0DF7
:100E7000FF1D61E080810E94D501E091A202F09106
:100E8000A302EE0DFF1D60E080810E94A30181E0BE
:100E900090E0A0E0B0E0092C04C0880F991FAA1FC1
:100EA000BB1F0A94D2F75C016C01C094D094812CD2
:100EB0008091A402881608F5082D10E0E091A002A8
:100EC000F091A102E00FF11F80810E9477010C5F79
:100ED0001F4F000F111FF801E25CFD4F892B41F4F9
:100EE000808191818A299B29918380838394E0CF9B
:100EF000808191818C219D21F7CFE091A202F09118
:100F0000A302EE0DFF1D61E080810E94A30180918C
:100F1000A2029091A302E80EF91E60E0F701808121
:100F20000E94D501939498CF9EE3E92E92E0F92E8A
:100F30008701F801878D90A1892B21F4148E368EBC
:100F4000258E11A20A5F1F4FF2E00A371F0789F7AB
:100F5000D12C8091A402D81608F053C0C12CAD2C1E
:100F6000B12CAA0CBB1CC5018A5B9D4F5C01209172
:100F7000A502C21608F043C0F501608171810C2CF6
:100F800002C0769567950A94E2F7D29E90011124EB
:100F90002C0D311DEEE3F2E080E0458D568D2417D7
:100FA000350709F440C18F5F36968A30B1F760FF8C
:100FB00024C0EEE3F2E090E080E0448D411118C0DF
:100FC000E0919E02F0919F02E20FF31F408156E0F4
:100FD000589FF001599FF00D1124E25CFD4F448FA2
:100FE000368F258F10A2178E61E00E94AF0005C0DA
:100FF000019636968A30910501F7C394B8CFD39401
:10100000A8CF80E0F70191A19111892FF6E0EF0EB2
:10101000F11C0E151F05B1F79FB7F89440912102FE
:101020005091220260912302709124029FBF40934D
:101030009A0250939B0260939C0270939D028823B6
:10104000A1F180915F02882381F180915D029091EE
:101050005E02019751F520915A02211129C0A091F9
:101060001F02B09120022FEF30E00E94650924E6B4
:1010700030E040E050E00E941509F22EE32E022FEE
:10108000132F61E08AE00E94D5010115110509F0D6
:101090007FC060E08AE00E94A30180E090E0892B9D
:1010A00009F4A2CE0E9400009FCE1092AA02D7CFD0
:1010B000233209F03FC010921E0210921D02C09010
:1010C0001D02D0901E02D0922002C0921F020E94E8
:1010D000F9030D2C000CEE08FF08F7FE43C041E0B9
:1010E0006DE281E392E00E94B10322273327A90138
:1010F0002C193D094E095F0919A2CE0181967C0188
:10110000CA01B901A30192010E943409605DF7018F
:1011100062937F01211531054105510589F7E114DD
:10112000F10419F0C7010E948B0383E591E00E944E
:101130008B0395CF40911F02509120023AE0349FDB
:10114000C001359F900D1124820F911D27FD9A95A6
:10115000C09790931E0280931D028536910508F476
:10116000AECF7DCFA701960119A2CE0181967C0159
:10117000CA01B901A30192010E943409605DF7011F
:1011800062937F01211531054105510589F7C7CFCC
:101190000F3F110511F461E07DCFE8EBF0E08491A1
:1011A000833029F140F48130C1F08230D9F0003829
:1011B00011058CF76ECF873031F1883061F18430C2
:1011C000B1F7809180008062809380008F2D9E2DEA
:1011D00090938B0080938A0060CF84B5806884BD33
:1011E000F7BC5BCF84B5806284BDF8BC56CF8091DC
:1011F00080008068809380008F2D9E2D90938900C1
:10120000809388004ACF8091B00080688093B000BE
:10121000F092B30042CF8091B00080628093B00022
:10122000F092B4003ACF6170E0CE052E97FB1EF429
:1012300000940E942C0957FD07D00E94340907FC36
:1012400003D04EF40C942C0950954095309521957F
:101250003F4F4F4F5F4F08959095809570956195E2
:101260007F4F8F4F9F4F0895A1E21A2EAA1BBB1BE1
:10127000FD010DC0AA1FBB1FEE1FFF1FA217B30762
:10128000E407F50720F0A21BB30BE40BF50B661F78
:10129000771F881F991F1A9469F76095709580953C
:1012A00090959B01AC01BD01CF010895A29FB001B3
:1012B000B39FC001A39F700D811D1124911DB29F8A
:1012C000700D811D1124911D08950E945609B7FFCC
:1012D0000895821B930B0895EE0FFF1F0590F49164
:0812E000E02D0994F894FFCF02
:1012E8000405060302010031323334353637383904
:1012F8002A3023000040001400540000000000F5CC
:1013080002C80288039E02C102AE029F02000000CA
:10131800000B04210188036C02000000001102D1B7
:1013280001A001656E7465722066726F6D20302DA4
:101338003130302500636C65617220696E70757498
:041348003A20230024
:00000001FF
